:020CC800230007
:1008AC007FFA120C68120C7C120800120C1F7F804D
:1008BC00120CB1E4F52874082528F8E6FF120CBBDD
:1008CC000528E528C3941040ED120B118E2A8F2BAE
:1008DC007C007D0F1209FF8E2A8F2B120A547FC0C9
:1008EC00120CB1E4F52974182529F8E6FF120CBB9B
:1008FC000529E529C3941040EDAF2BAE2A120A9FAF
:10090C00120C38120C7CAF37120C8AAF38120C8ACE
:10091C007BFF7A0C79C8120B3BAF3A120C8AAF3BB7
:10092C00120C8A7BFF7A0C79C8120B3BAF3D120C70
:0C093C008AAF3E120C8A120C7C0208B13B
:0D0C7C00007F087E017DF3DDFEDEFCDFFA67
:010C89002248
:030CC500DFFE222D
:100BAE00D3EF9400EE940040147D6E7C00ED1D702A
:0D0BBE00011CED4C70F7EF1F70E61E80E388
:010BCB002207
:100BCC00D3EF9400EE940040147DC8D3ED64809470
:0D0BDC008040031D80F5EF1F70E61E80E3D2
:010BE90022E9
:100C68004389207598507587808F8D8F8BD2ACD231
:040C7800AFD28E2247
:0E0C8A00C2ACC2998F993099FDC299D2AC22AA
:100B3B008B2C8A2D892EAB2CAA2DA92E1209D4FF12
:100B4B006015120C8A7F05120CC57401252EF52E2B
:080B5B00E4352DF52D80DF22A9
:0B0CA600C2B6D2B5D2B4D2B6C2B5229D
:100BEA00C2B6E4FEEFC4131313540124FF92B4EF08
:0B0BFA0025E0FFC2B6D2B60EBE08E92F
:010C050022CC
:100B8A00E4FFFEC2B6FDFCEF25E0FFEE33FED2B66F
:100B9A00C2B6A2B7E43342070DBD00010CED640CE6
:030BAA004C70E4A8
:010BAD002225
:100C0600C2B6C2B5120BEA7F06DFFED2B60000C23C
:080C1600B60000120B8AD2B5F2
:010C1E0022B3
:100AE700C2A58F807F017E00120AF8D2A77F057EFC
:010AF70000FE
:100AF800D3EF9400EE9400400F7DC77C01DCFEDD4F
:080B0800FAEF1F70EB1E80E8FC
:010B100022C2
:0A0CB100C2A7C2A6120AE7C2A722DA
:0A0CBB00C2A7D2A6120AE7C2A722C0
:100C1F007F38120CB17F0C120CB17F06120CB17F12
:090C2F0001120CB17F80020CB12E
:100C5100D2907F02120CC5C2907F147E00120BAE9F
:070C6100D2907F1E020CC5BA
:100B6300E4F536F5353090FD7F08120CC5E53625E2
:100B7300E0F53630900205362090FD0535E535C3A6
:060B8300940840E1AF36CA
:010B89002249
:10080000120C513090030208AB3090FD7F28120C7F
:10081000C5120B638F2C120B638F2D120B638F2E5F
:10082000120B638F2F120B638F347F19120CC5E5E7
:100830002C252DFFE433FE7C00EF252EFFEC3EFE41
:10084000EF252FFFEC3EFEEFB53410ECB5060C851E
:100850002C30852D31852E32852F3375085375093F
:1008600068750A69750B3AE53075F00A842430F52D
:100870000CE53075F00A84E5F02430F50D750E5264
:10088000750F4875102075115475126575136D75C7
:10089000143AE53275F00A842430F515E53275F026
:0B08A0000A84E5F02430F516751743BC
:0108AB00222A
:100B1100E4F52CF52DF52E7FE4120C06EF252DF5CD
:100B21002DEE352CF52C052EE52EC3943240E8AE82
:0A0B31002CAF2D7C007D320209FF7D
:100A5400AB07AA0675185375196D751A6F751B3A8D
:100A64007C007D0A1209FFEF2430F51CAE02AF03AF
:100A74007C007D0A1209FFED2430F51D751E2575D5
:100A84001F2075202075212075224C75234575245F
:0B0A94004575252075262075272022BF
:100A9F00C3EF9414EE94005029E51524D0FFE434ED
:100AAF00FFFE7C007D0A1209EDE51624D0FDEC3423
:100ABF00FFCD2FFFED3EFEC3EF9419EE64809480BF
:100ACF004015E4F52CB2957F057E00120BCC052C5A
:070ADF00E52CC394FF40EE7B
:010AE60022ED
:0D0C98000B37233030233030233030230061
:100C3800850C37850D3875392385153A85163B752A
:090C48003C23851C3D851D3E2264
:03000000020948AA
:0C094800787FE4F6D8FD75814102098F2C
:1009D400BB010689828A83E0225002E722BBFE0221
:0909E400E32289828A83E4932254
:1009ED00EF8DF0A4A8F0CF8CF0A428CE8DF0A42E1E
:0209FD00FE22D8
:1009FF00BC000BBE0029EF8DF084FFADF022E4CCDC
:100A0F00F875F008EF2FFFEE33FEEC33FCEE9DECA4
:100A1F00984005FCEE9DFE0FD5F0E9E4CEFD22EDEA
:100A2F00F8F5F0EE8420D21CFEADF075F008EF2F34
:100A3F00FFED33FD4007985006D5F0F222C398FD25
:050A4F000FD5F0EA22C2
:100954000208ACE493A3F8E493A34003F68001F205
:1009640008DFF48029E493A3F85407240CC8C333A4
:10097400C4540F4420C8834004F456800146F6DF73
:10098400E4800B0102040810204080900C98E47E5F
:10099400019360BCA3FF543F30E509541FFEE49368
:1009A400A360010ECF54C025E060A840B8E493A32F
:1009B400FAE493A3F8E493A3C8C582C8CAC583CA5A
:1009C400F0A3C8C582C8CAC583CADFE9DEE780BE12
:010CA500004E
:00000001FF
